:020000040800F2
:1000000080220220CD1F0008B7590008B91F000840
:10001000B91F0008B91F0008B91F00080000000040
:100020000000000000000000000000008D2000081B
:10003000B91F0008000000002D200008CD32000884
:1000400005220008052200080522000805220008F4
:1000500005220008052200080522000805220008E4
:1000600005220008052200080522000805220008D4
:1000700005220008052200080522000805220008C4
:1000800005220008052200080522000805220008B4
:1000900005220008052200080522000805220008A4
:1000A0000522000805220008052200080522000894
:1000B0000522000805220008052200080522000884
:1000C0000522000805220008052200080522000874
:1000D0000522000805220008052200080522000864
:1000E0000522000805220008052200080522000854
:1000F0000522000805220008052200080522000844
:100100000522000805220008052200080522000833
:100110000522000805220008052200080522000823
:100120000522000805220008052200080522000813
:100130000522000805220008052200080522000803
:1001400005220008052200080522000805220008F3
:1001500005220008052200080522000805220008E3
:1001600005220008052200080522000805220008D3
:1001700005220008052200080522000805220008C3
:1001800005220008052200080522000805220008B3
:1001900005220008052200080522000805220008A3
:1001A0000522000805220008052200080522000893
:1001B0000522000805220008052200080522000883
:1001C0000522000805220008052200080522000873
:1001D0000522000805220008052200080522000863
:1001E0000522000805220008052200080522000853
:0801F0000522000805220008A9
:1001F80053B94AB9002908BF00281CBF4FF0FF3186
:100208004FF0FF3000F00CB8ADF1080C6DE904CEEA
:1002180000F010F8DDF804E0DDE9022304B07047CF
:10022800704700BF034613F8012B002AFBD1181AA8
:10023800013870472DE9F04786468C460846089EE7
:10024800154674461946002B40F0C2808542B2FA22
:1002580082F245D94AB1C2F1200300FA02FC2EFA13
:1002680003F3954043EA0C0C94404FEA154EA8B2AC
:10027800BCFBFEF8230C0EFB18CC08FB00F943EA84
:100288000C43994528D9EB1808F1FF3704D2994552
:1002980002D9A8F102072B44A3EB0903A4B2B3FBCC
:1002A800FEFC0EFB1C330CFB00F044EA0344A042A6
:1002B80014D92C190CF1FF3304D2A04202D9ACF1A5
:1002C80002032C44241A43EA07401EB1D4400023F9
:1002D80034607360BDE8F0874746DDE76346F1E7C1
:1002E80092BB431B01214FEA154EAFB2B3FBFEFC94
:1002F800200C0EFB1C330CFB07F840EA034398451F
:1003080062D9EB180CF1FF3004D2984502D9ACF150
:1003180002002B44A3EB0803A4B2B3FBFEFC0EFBC4
:100328001C330CFB07F744EA0344A7424ED92C19A7
:100338000CF1FF3304D2A74202D9ACF102032C44DA
:10034800E41B43EA0040C0E7C2F1200320FA03F1AE
:10035800954090402EFA03F303434FEA154EAFB28F
:10036800B1FBFEFC0EFB1C10190C0CFB07F841EA54
:100378000041884504FA02F422D969180CF1FF30CB
:1003880004D2884502D9ACF102002944A1EB080146
:100398009BB2B1FBFEFC0EFB1C110CFB07F743EAFA
:1003A80001439F420ED9EB180CF1FF3104D29F4252
:1003B80002D9ACF102012B44DB1B41EA004192E770
:1003C8006046E3E76146F7E76046A3E76346B7E7B9
:1003D800834206D916B9002108467BE7C6E900E042
:1003E800F9E7B3FA83F78FB9834201D3724508D886
:1003F800BEEB020460EB030301209C461EB90021FA
:1004080068E73846FAE7C6E9004CF8E7C7F1200C78
:10041800BB4022FA0CF41C432EFA0CF120FA0CF320
:10042800B84001434FEA14490EFA07F5B3FBF9F84F
:100438001FFA84FE09FB18300B0C08FB0EFA43EA7E
:1004480000439A4502FA07F240D9E31808F1FF3051
:1004580004D29A4502D9A8F102002344A3EB0A0367
:1004680089B2B3FBF9F809FB183308FB0EFE41EA21
:1004780003418E452CD9611808F1FF3304D28E450B
:1004880002D9A8F10203214443EA0040A0FB0298E4
:10049800A1EB0E014145CE46434602D306D14D4558
:1004A80004D2B9EB020E68EB04030138002EA6D083
:1004B800B5EB0E0261EB030101FA0CFC22FA07F31B
:1004C8004CEA0303F940C6E9003198E74046C5E71E
:1004D8004346D9E72DE9F0478CB0374A374D00AF8E
:1004E80090683B46D168DFF8D890DFF8D88003C31E
:1004F80028466E4605F028FF4FF41651284603F0AB
:10050800B3F8284605F0B1FF08223946284605F019
:1005180030FF88B06A464FF0030A00234FF4C851F1
:100528002948C2E9059842F810AF04F054FC41F29A
:1005380088332822B54607F10801284605F054FFFC
:10054800041E15DA88B06A46204B4FF4C851C2E938
:100558000538002342F810AF1B4804F03CFCB546B0
:10056800284605F0FEFE40F6B83004F036FCBFE73A
:1005780088B06A46164B4FF40451D4611248C2E958
:100588000538042342F8103F002304F024FCB54644
:10059800002CE5D088B06A460E4B2105536141F422
:1005A800E6510D4B93614FF4007393830B4B42F864
:1005B800103F07F10803CFE71C710008986C00088A
:1005C800EF740008BC750008C470000805750008C1
:1005D8001F750008E3740008E674000803000001B2
:1005E8002DE9F0478CB0374A374D00AF10683B46CD
:1005F8005168DFF8D890DFF8D88003C328466E46E4
:1006080005F0A2FE4FF41651284603F02DF82846AF
:1006180005F02BFF08223946284605F0AAFE88B0C7
:100628006A464FF0030A00234FF4C8512948C2E92B
:10063800059842F810AF04F0CEFB41F28833282227
:10064800B54607F10801284605F0CEFE041E15DA66
:1006580088B06A46204B4FF4C851C2E905380023D8
:1006680042F810AF1B4804F0B6FBB546284605F023
:1006780078FE4FF47A7004F0B0FBBFE788B06A46A2
:10068800164B4FF40451D4611248C2E905380423CB
:1006980042F8103F002304F09EFBB546002CE5D03D
:1006A80088B06A460E4B2105536141F4E6510D4B63
:1006B80093614FF4007393830B4B42F8103F07F19B
:1006C8000803CFE71C710008986C00084075000803
:1006D800CD750008C47000085675000870750008CC
:1006E800E3740008E674000803000001F0B589B05F
:1006F800194805F0CCFE38B318480026002704F046
:100708006BFD00240725164B4FF400721549009421
:100718001548CDE90667CDE90354CDE9014403F056
:1007280001FB124B4FF40072114912480094CDE9B5
:100738000667CDE90354CDE9014403F0F3FA4FF419
:10074800FA6004F04AFBFAE70B4804F045FD6FF045
:10075800120009B0F0BD00BF986C0008AC75000825
:10076800E9050008400F022010040220DD040008FB
:10077800000D022090030220917500082DE9F04F2A
:1007880091B0840705460E46009302F00403DDF895
:1007980068800293C2F3C203039203F10103059335
:1007A80040F0BA81041D30B1072909D86FF01B0049
:1007B80011B0BDE8F08F01F007063444C6F1080611
:1007C800009B4FF000094FF0040A591E4FF0FF3309
:1007D8004F46CB4601935346CDF810900DB1009A81
:1007E80022600598002800F3E8809848009A824221
:1007F80003D397488242C0F0E080039AA4EB050E29
:1008080092074FEA9E0000F103810F2F00F2B1809A
:10081800002D00F0058107F140020DEB020C019A52
:100828000CF8200C0CF8102C049801300490E7E028
:100838007A285DD84B280ED8472859D829282DD88A
:10084800252852D054D820287AD02338D0F1000B4C
:100858004BEB000B74E04C382E2849D8DFE800F049
:100868007048484848484848484848484B484848D5
:10087800484848484859484B4B595959704B6D4856
:100888007048184B184848827F4B48484B487F00AF
:1008980000204FF0000B4FF0040A38E02A380122FC
:1008A800C0B202FA00F010EA0E0F49D110F0625CF3
:1008B8002FD110EA020B43D06046013C5444B4FBEC
:1008C800FAF40AFB04F4002D61D0A3EB050CA44450
:1008D800B4453FF66BAF002868D1042B47D158F8D0
:1008E800043B2360043404232AE0019A013A01926C
:1008F8004FF0000B24E011F8010C6C2834D111F8EA
:10090800023C00206C2B8346C5D14FF0080A5346A1
:10091800D3E708F10708073428F0070824F007048C
:10092800F8E802AB35B106982044B0423FF63EAF36
:10093800C4E900AB08344FF0000B4FF0080A5346E7
:1009480011F8010F002878D0BBF1000F7FF470AFC9
:100958002528F5D1019B4FF0010B013301934FF08E
:10096800040AECE7584694E700208346A5E7082BDD
:1009780002D06FF015001BE708F1070828F00708F8
:10098800F8E80223C4E9002308340823D8E768B943
:10099800042B02D108F10408A4E7082BE9D108F1D7
:1009A800070828F0070808F10808EDE7059A013A52
:1009B800059258F8042B009210E7039A900720D567
:1009C800A4EB050E4FF0010C4FEA9E00BEF5007F28
:1009D800CFD20F2FCDD8F5B107F14002C0B20DEB41
:1009E800020E019A0EF8200C0EF8102CBCF1000F24
:1009F8003FF41AAF60F07F0009F101090EF8200CEE
:100A08000137C5F1080204344FF6DA7E069297E7FB
:100A18004FF0000CDAE7BCF1000F01D00136EFE728
:100A2800029802360028EBD10098CDE90631FFF78D
:100A3800F9FB0644DDE90631E2E7631BB3F5806F95
:100A480097D23DB9A6F10804E018B1E6906900080C
:100A5800C88000089B08029A28602B709DF8103007
:100A6800C2B1EB7085F80290B9F1000F05D008A863
:100A78000022C5F1010C97420ED1C5F101030DF119
:100A880020084FF0000A0DF1300B0193574512D1A1
:100A9800601B8DE66B70E5E710F8013B190608D579
:100AA8000CEB040E03F07F03B6453FF67FAE04F867
:100AB800013B0132DFE7B9F1000F03D098F90020BC
:100AC800002A17DB029BD3B11AF80B2004F8012B7C
:100AD8000022019B18191044B0423FF667AE98F8FF
:100AE8000000009904F8010B2046039205F0C0FEAF
:100AF800039A14440AF1010A08F10108C6E798F8B4
:100B0800002055F822300093029B009845F82230C7
:100B1800FFF788FB421CDCE76FF00D0048E600BFDA
:100B28002DE9F04F97B00446894600AF90F802A02F
:100B3800D7F880B03B62CBF3C003FA62BB6141B91E
:100B4800457800780AEB800020444D4517D8A0EB83
:100B58000409E378FB61BAF1000F02D01BF0010F22
:100B680016D1FB6953BBFB6A1BB13A6A494620465A
:100B780098474D4628465C37BD46BDE8F08F461C71
:100B880009F101093046FFF74DFB01303044DCE73D
:100B98002378626899007A62FA6A796104EB8301C2
:100BA800002A40F000814D460E4601EB0A094FF03D
:100BB80000084E454CD101EB0A0610E01BF0020F6D
:100BC800D1D023789A0004EB83017A6162687A6253
:100BD800FA6A002A77D14D4601EB0A0690461BF0C7
:100BE800050F0CBF02230123FB62FB6906EB430AD6
:100BF8000BF00203BB625645BCD016F8021B16F870
:100C0800013C54F82390994B994502D3984B994548
:100C180036D3BB69002B40D0786A04F0B6FA0028B6
:100C28003BD0E9468AB06A46924B53617B6AC2E977
:100C380006314FF4007313848F4B42F8103F0023A2
:100C48004FF412518D48023D00F02AFCCD46D2E700
:100C580016F8013BF96254F82300FFF7E3FAD7F8D6
:100C680084300130F96A4BB1D7F8883098453EBFD7
:100C7800D7F8843023F8180008F10108054498E7EC
:100C8800BB6923B1786A04F080FA0028C9D11BF047
:100C9800010F05D1FB6AED1AADE7BB6A002BAAD09C
:100CA8004846FFF7BFFAD7F8843053B1D7F88830F1
:100CB80098453FBF431CD7F8842022F8183008F124
:100CC8000108054497E7BAF1000F72D01BF004063B
:100CD80072D0D046002607F1480052463B61B962FF
:100CE80005F0C6FDB96A3B6901EB0A02F969BA6207
:100CF800FA695200FA60BA6A02EB41023A610BF0F3
:100D08000202BA603A69B96A8A4257D11BF0020FE7
:100D180062780CBF4FEA580100217A621BF0010F7C
:100D28003244D2B240F09F801BF0040F14BF4046FB
:100D38000020BB616270A0702046E1703A6A796950
:100D4800FB6A9847051EFFF615AFBB6941463A6A2C
:100D580007F1480023707B6A84F802A06370FB697E
:100D6800E370FB6A9847B0F10008C0F2BB807B696A
:100D7800A9EB0A013A6AC91AFB68C91AD7E90A0332
:100D880098470028C0F2B080A8444FF0000B07F144
:100D9800380A08EB0005B34572D300213A6AFB6AAA
:100DA80008469847E6E656464FF0000807F138002F
:100DB80093E75646D04697E7B04695E7BA6A12F8E1
:100DC800021B12F8015CBA6254F82500274A9042C7
:100DD80002D3274A90421ED3BA6932B1786A7B603F
:100DE80004F0D3F97B6800288CD1BA6802BB08F1FB
:100DF800280207F1300C08F1010008F102089444B8
:100E080007F158025FFA88F852FA80F00CF8101CC3
:100E180000F8105C76E7BA693AB1786A7B6004F04A
:100E2800B4F97B6800287FF46DAF1BF0010F09D07F
:100E380006F1280207F13000711C161806F8205C2C
:100E4800CEB25FE71BF0040F3FF45CAF08F1280255
:100E580007F1300008F1010102EB000808F8105C06
:100E68005FFA81F84EE7002063E700BF9069000849
:100E7800C8800008E275000804000001CC70000872
:100E88001BF80A3054F8239087F83730D7F88430A5
:100E98002BB3D7F888309B4521D2D7F8843033F864
:100EA8001B803A6A012107F13700FB6A984700283E
:100EB8001ADB0544B8F1000F06D14846FFF7B2F92E
:100EC80000F101081FFA88F83A6A41464846FB6A69
:100ED8009847002808DB05440BF1010B5BE74FF04E
:100EE8000008DEE7454645E6054643E6014B18603F
:100EF800704700BF0000022080B505460E46174621
:100F0800984603F097F9DFF82090034605F032FD84
:100F18000446424649F8003039463046A84754F856
:100F2800090001F069F800BF08000000034A00202A
:100F3800536823F002035360704700BF002004E0A9
:100F4800064B1A6842F400721A601A6842F48072FA
:100F58001A60034B034A1A60704700BF003C024006
:100F6800800002200024F4002DE9F04704460746DB
:100F78004FF00109DFF8508014B93846BDE8F08712
:100F880094FAA4F5B5FA85F509FA05F32E0108EBEC
:100F980005156FEA030A24EA03042B7B002BEBD028
:100FA80058F806301B694BB946440422284607EA1C
:100FB8000A077368196804F0C1FBDDE728469847FB
:100FC8000028D9D1F0E700BF0C71000830B5002225
:100FD80089B00F490F4805F0F8FB002200230024D0
:100FE8000D4D0E4928460094CDE906230E234FF4F3
:100FF8004072CDE90334CDE90144094B02F092FE79
:101008000849284605F0C3FA204609B030BD00BF9C
:1010180031100008180902209004022080110220D3
:101028004D13000896760008014802F0B1BD00BFD4
:101038007C0302202DE9F047804620480F4604F043
:1010480055FB0646002832D000252846BDE8F08723
:10105800237B83B12368DB680BB12046984763681C
:1010680083F8069023681B69CBB96368042220467D
:10107800196804F063FB013610345445E8D3B8F11D
:10108800000FE2D0002DDFD02846FFF76DFF0546A0
:10109800002FF7D00021642005F02AFBF2E7204654
:1010A80098470028E1D009FA06F31D43E3E7044C0A
:1010B8000546DFF810A04FF00109DEE7100B02200B
:1010C8000C7100081C710008014B53F82000704790
:1010D8004071000808B5034608462BB1044A13605E
:1010E80000F074FC002008BD6FF01500FBE700BF9E
:1010F8000400022010B5044C237813B9034802F009
:1011080047FD0123237010BDF00C02207C03022050
:1011180010B504460B4804F0E9FA5CB10A4BBFF37A
:101128005B8F53E8001F013943E80012002AF8D109
:10113800BFF35B8F054805F054FB0548BDE8104038
:1011480002F026BD080B02200C0B02201809022011
:101158007C0302200020064BBFF35B8F014653E857
:10116800000F43E80012002AF9D1BFF35B8F7047E4
:10117800080B022070B5FFF7EDFF084C0546084E36
:10118800B44200D370BD63685B792BB123685B6898
:1011980013B12946204698471034F1E70C7100082E
:1011A8001C71000810B5044C0449204604F024F9C9
:1011B800034B1C6010BD00BF400302202C710008C7
:1011C800000B022000230D4A4FF47A710C4810B529
:1011D80013700C4A13600C4A1360FFF77BFFFFF78C
:1011E800E1FF0A4B0A4918468B4200D310BD1A1A70
:1011F8005C681033121101322271F5E7F10C0220FC
:101208000F570008080B02200C0B02200C71000875
:101218001C710008014600220023014804F00DB9A2
:1012280040030220014804F0A6B900BF4003022091
:10123800024B0146186804F0F2B900BF000B022007
:10124800014804F027BA00BF40030220264B70B5BE
:101258001878002846D0FFF7E5FF054600283ED15C
:10126800224B234C1B68002B12DD05F0ACFA0A2236
:101278000023FEF7BDFFD4E90032C01A40F2E9337B
:1012880061EB0201984271F1000101D3FFF772FF8F
:10129800D4E9003213F57A7342F10002C4E900324E
:1012A800BDE87040FFF7CCBF63685B7923B1236862
:1012B800294620461B6898471034B442F4D3284680
:1012C800FFF7B6FF0B4BBFF35B8F53E8001F0139E5
:1012D80043E80012002AF8D1BFF35B8FC0E7064C41
:1012E800064EEAE770BD00BFF00C0220080B022092
:1012F800100902200C0B02200C7100081C71000858
:1013080070B50D4D297861B90C4C01200C4EFFF7D2
:1013180091FEB44206D3FFF799FF0028FBD10123C1
:101328002B7070BD63685B791BB1236820469B688E
:1013380098471034EDE700BFF10C02200C7100084B
:101348001C71000800212DE9F0470846FFF772FEDE
:10135800044658B34FF4FA784FF000091C4B05F0D7
:1013680009FB1C4A1B58136033B11B4B1B68092B24
:1013780002DD1A4802F00CFC0025194FDFF85CA0CA
:1013880044B12046FFF7F0FD044618B94FF0FF3886
:101398004FF0FF39FFF75AFF064628B9B5B942465C
:1013A8004B46504602F028FC3546E9E74FF0FF3837
:1013B8004FF0FF39D2E72B689B691BB10022284602
:1013C800114698471035BD42F5D3E8E7054DFAE7D1
:1013D80008000000040B02200C0B02207C030220F2
:1013E8001C7100080C71000813B5184804F07EF948
:1013F800174B1B7873B1EFF31184102383F3128812
:10140800BFF36F8FFFF722FF84F31188BFF36F8F4D
:1014180002B010BD0F4B1B68002BF9D050B9002249
:1014280000230D48CDE9002342F21072002303F097
:10143800F9F9EDE70928EBD1074805F0D2F9074893
:1014480002B0BDE8104002F0A3BB00BF0C0B0220A5
:10145800F10C0220040B0220180902207C03022050
:10146800064B10B504461B6898472146A0600448FF
:1014780004F062F8BDE81040FFF7B6BF0400022090
:1014880040030220044A054B9B1AB1EBD30F34BF2B
:1014980052F8310000207047C47000080C71000831
:1014A8002DE9F04F8FB0C1F34A280D46914604AF9D
:1014B8000C0DB8607B60B8F1000F63D0002607F10F
:1014C80014034FF0040B4FF00A0AC7F80C80324699
:1014D8007E624846C7E90766019307F11C03CDF809
:1014E80008B0CDF800A0F968FFF71AFBB0F5006F57
:1014F80003461CD36C468AB0D9F8041004AB2648BE
:101508001A46C3E9050140F2FF71D9614FF4007131
:101518001984224B42F8103F4FF4125133462048A9
:10152800FFF7BEFFA5462C37BD46BDE8F08FC0F3D8
:101538000A0804F117003B60184468F3532520F0AB
:1015480007008008FFF766FE044690B13B6800F18B
:101558001001144A4846F961C7E9083607F114032F
:10156800CDF808B0CDE900A307F11C03F968FFF72F
:10157800D7FA68F353257B68B96820462A4604F0F1
:10158800FCF8D0E704F1170020F007008008FFF707
:1015980041FE0446EDE700BFAB76000804000001F9
:1015A800D4700008575700082DE9F04F87B004465B
:1015B800934698460391DDE91279DDE9105ABFB1E7
:1015C8003B46524610210020CDF80090CDF81490EB
:1015D800FFF7D4F8B0F5006F06460AD340F2FF7360
:1015E800174A0221174807B0BDE8F04F04F01EB9AA
:1015F8003E4604F0070405F117000BF0070BE40062
:10160800304444EA8B1420F0070044EA462480085A
:1016180044EA0554FFF7FEFD054640B13FB13B469D
:10162800524631461030CDF80090FFF7A7F84346F0
:1016380022460399284607B0BDE8F04F04F09DB84C
:10164800EA760008D4700008406820B1034BC01A3D
:1016580040F3CF0070474FF0FF307047C470000868
:101668000EB403B503AB0146054853F8042B0193A8
:1016780000F0C0FF02B05DF804EB03B0704700BF94
:101688007F580008CA0605D48B064CBF0249034997
:10169800FFF7E6BF704700BF547500085375000890
:1016A8002DE9F04F89B09B4604460D46149B9046A1
:1016B8009DF84CA00693159B179E0593169B0493C3
:1016C800BAF1000F00F09D8006F4807306F002095D
:1016D800079304F031F8024600283ED0914920468D
:1016E800FFF7BEFF0746B9F1000F08D016F0440F08
:1016F80035D12A468C492046FFF7B2FF074406F049
:10170800010353B1894B2046894953F82A20894B54
:10171800002A08BF1A46FFF7A3FF06F48073002BC0
:1017280049D006F00803002B63D1B8F1000F66D04A
:10173800424681492046FFF793FF0546069B3D44F4
:10174800002B6DD1049B002B73D1F30700F1E480CB
:1017580031462046FFF796FFD8E00746C3E7774BA8
:1017680018680028CAD0764B4FF47A794FF03C0CB1
:101778001B68B5FBF3F5B5FBF0F100FB11554FF411
:10178800616309FB05F5B1FBF3F2B5FBF0FE03FB62
:10179800121100FB1E55B1FBFCF309FB05F50CFB10
:1017A8001311B5FBF0F5009120466649CDE901E536
:1017B800FFF756FFA2E706F00803EBB1624B20469D
:1017C800624953F82A20FFF74BFF0546B8F1000F8E
:1017D80005D0424658492046FFF742FF0544BBF171
:1017E800000FABD05A465A492046FFF739FF054447
:1017F800A4E74FF0000BE1E706F00805E6E74546E9
:101808009CE7BBF1010F069B06D1002B64D1049B1A
:10181800002B7BD000250CE0002BF8D04D485CE075
:101828004D48069B22464D4903F07EFC049B002B45
:1018380068D0DFF82C81DFF82C91049F4FF0000B63
:1018480031462046102F28BF1027FFF71BFF5D45A4
:1018580045DC059B4FF0010B494620461A78FFF7F7
:10186800FFFE1BF0070F03D141462046FFF7F8FEA5
:101878005F453BD9059B4946204613F80B20FFF7E7
:10188800EFFE0BF1010BBBF1100FEAD14FF0000B8B
:1018980035492046FFF7E4FE5A46059B20469A5CE8
:1018A800A2F120015F29314928BF2E22FFF7D8FE77
:1018B8000BF1010BBBF1100F1DD01BF0070F03D16B
:1018C80041462046FFF7CCFE5F455A46E5D84146DB
:1018D8002046FFF7C5FEEBE71F485546A1E74146FE
:1018E80020460BF1010BFFF7BBFEB0E7204920466D
:1018F800FFF7B6FEC5E7059B3B440593049BDB1B3E
:1019080004939AD1BAF1000F7FF41FAF204609B0B3
:10191800BDE8F04F03F0A2BF064A20460449FFF78E
:101928009FFE15E7277700082B77000850710008FD
:10193800E37400082277000850770008180B02208B
:10194800140B0220347700086471000854770008EB
:101958005A770008B55800087F580008FD25000888
:10196800677700085F770008697700086B770008D9
:101978006577000842F20F73114A8B4273B504462B
:1019880028BF0B4605680521684602F09DFF63687D
:1019980006460B2228465B680A4903F051FF636834
:1019A8003246694628465B6803F04AFF63681B2293
:1019B80005495B68284603F043FF02B070BD00BFCD
:1019C800977800088A7700086E77000800210123BD
:1019D800064A904206D8064A01B901231360054B0E
:1019E80018607047400801215B00F2E740420F0091
:1019F800140B0220180B0220F8B50D4604464618B1
:101A0800054FB44201D12846F8BD14F8011BBB6844
:101A180001485B689847F4E7386C0008014B03609D
:101A280001207047AC7100082DE9F047064600AF69
:101A38000C46002936D0E9468AB0A3686D46D1E93C
:101A4800001221484FF0050AA846C5E90501C5E975
:101A5800072348F810AF002342464FF421511B4892
:101A6800FFF71EFDCD466369AD46D4E90312184859
:101A7800C5F810A0C5E90501C5E9072300234246BA
:101A88004FF421511148FFF70BFDCD46E369114A88
:101A980001210E4803F0CAFEA3690F4A01210B4831
:101AA80003F0C4FE012E07D1EFF305830B4A103B68
:101AB8003146064803F0BAFE2146304601F00EFED4
:101AC800BD46BDE8F08700BFEC770008F470000859
:101AD8001B7800084A7800085978000887780008B9
:101AE80030BFFFF7FDBF00BF2DE9F0410B4E0546A3
:101AF800DFF82C80324606EB0807CC1B0949204644
:101B080004F0B6FEA019083C4246002104F0BEFECF
:101B180007F108002C67BDE8F08100BF0000000055
:101B2800040000001C710008054B5A699B689A4222
:101B380004D0044A536843F080535360704700BF91
:101B4800C40C022000ED00E070B5294C06460D4695
:101B58002848294903F032FFA36AD9043CD525480F
:101B6800264903F02BFF1720A36A1A0504D521483C
:101B7800234903F023FF18201D4CA36A9B0512D5A7
:101B88001C48204903F01AFFA36BA26A100409D568
:101B98001D4A0121174803F049FE1EB1A36A23F428
:101BA8000043A3621920124CA36A590504D51148B1
:101BB800164903F003FF1A20A36ADA050ED50D486B
:101BC800134903F0FBFE1B20094A936A43F47F4341
:101BD800936200232B7070BD1620C5E7A36A9B048F
:101BE800F2D504480B4903F0E9FE1C20ECE700BFDE
:101BF80000ED00E0F47000089A780008B07800085A
:101C0800C1780008D4780008ED7800080279000847
:101C18001D7900083579000810B5204C2049214865
:101C280003F0CCFEA36A990136D51E481E4903F07D
:101C3800C5FE1E20A36ADA0104D51A481B4903F021
:101C4800BDFE1F20154CA36A1B0304D5154818496F
:101C580003F0B4FE2120A36A590304D5114815499D
:101C680003F0ACFE22200D4CA36A9A0304D50D485C
:101C7800114903F0A3FE2320A36ADB0304D5094816
:101C88000E4903F09BFE2420044A936A6FEA03433B
:101C98006FEA1343936210BD1D20CBE700ED00E00F
:101CA80064790008F47000087C7900088F790008CE
:101CB800A9790008C7790008EC790008067A0008B5
:101CC8002DE9F843364D8046894636483649174649
:101CD80003F074FEAB6ADE0627D511243349314878
:101CE80003F06CFEAB6A1D0704D5122430492D4859
:101CF80003F064FE2A4DAB6A980718D52D49294888
:101D080003F05CFE6E6BAB6A190646D52A4A334669
:101D18000121244803F08AFDB9F1000F03D0AB6A12
:101D280023F08003AB62132403E01024DAE76FF09A
:101D380015061B4DAB6ADA0704D514241F49194848
:101D480003F03CFEAB6A9B0604D515241C491548D4
:101D580003F034FE124B9A6AD50602D49A6A9007A9
:101D68000AD55B68190507D54146304600F000FAE8
:101D780010B180F309880224094B9A6A920603D5A8
:101D88005A6A22F400525A629A6A204642F0FF02C6
:101D98009A6200233B70BDE8F8836FF01506C2E72E
:101DA80000ED00E0F4700008317A0008477A000876
:101DB800C17800087A7A0008927A0008A87A0008A0
:101DC800357900082DE9F041664B8AB004460026B3
:101DD800D3F8048000AFC8F3080586F31188BFF371
:101DE8006F8F02F07F43B3F17F4F07D102F00C03EE
:101DF800082B12D15C495D4803F0E0FD002634460B
:101E08000023FB71EB1E092B00F28B80DFE803F047
:101E18000A81847D89898989898710074CBF0C4686
:101E28000126EDE75249514803F0C8FD4D4D002306
:101E3800FB71EB6A9A0705D54E494C4803F0BEFD85
:101E4800002332E0EB6A002B01DA4B49F5E7EB6A35
:101E58005B00F5D54949454803F0B0FD6B69A269B7
:101E680043F480736B61BFF34F8FBFF36F8F6B6960
:101E780032F8022C23F480736B61BFF34F8FBFF3EA
:101E88006F8F4DF602739A4208D0AB6ADBB27BB310
:101E9800FA1D01212046FFF713FF38E02368384A6E
:101EA8000121324803F0C2FC2368FA79E2B907F14C
:101EB800080504F1200C2068083454F8041C2A464C
:101EC800644503C21546F6D17A6A002E45D0C2F39E
:101ED800080121B96FEA52226FEA42227A6207F1B9
:101EE80008011846FFF7A0FD2837BD46BDE8F08178
:101EF800AB6A13F47F4F04D0F91D0120FFF724FECD
:101F080005E0AB6AB3F5803F9AD3FFF785FE034639
:101F1800CBE7FA1D0021BDE7F91D0020EEE71949BE
:101F28008BE718F4F87F184AE8468AB0174B18BFB1
:101F380013466A461649103DC2E905134FF400736B
:101F4800D5611384134B42F8103F00234FF411510D
:101F58000648FFF7A5FAC54672E722F4FF7222F099
:101F68000102BBE700ED00E0F57A0008F470000814
:101F7800207B0008377B0008587B0008667B000838
:101F8800857B0008A17B0008DC7A0008C77A000876
:101F9800C57B000804000001044B5A6942F0100296
:101FA8005A615A6922F008025A61704700ED00E050
:101FB800EFF30880EFF3098101B57246FFF702FFDE
:101FC80001BD00BF0A4880F30888102080F31188FB
:101FD80008484FF40461401880F30988EFF314802F
:101FE8000221084380F31488BFF36F8F00F08EF846
:101FF80080220220C0140220084B9B6883420BD128
:10200800EFF3058343B1064B5A6842F080525A6099
:102018005A6A22F400425A6202F012B9C40C022031
:1020280000ED00E014498A684FF030001044EFF3E7
:10203800098C80E8F01F102080F31288BFF36F8F9F
:102048000E4F4FF000664A698A603E60106F0C4C74
:102058002060506F0023536780F3118804B5104641
:1020680000F0EAF8BDE8044002F1300090E8F01F03
:102078008CF3098870470000C40C022004ED00E0CE
:10208800400B02201EF0040F0CBFEFF30880EFF3A3
:102098000980816911F8021C0229FFD001B5724636
:1020A80003F081FC01BD00BF40B2002807DB01231B
:1020B800410900F01F00024A834042F8213070476E
:1020C80000E100E040B2013100284FEA0111C9B235
:1020D80006DB00F1604000F5614080F800137047AE
:1020E80000F00F00014B1954704700BF14ED00E0D9
:1020F800044B054A23F07F039360BFF34F8FBFF370
:102108006F8F70470000000800ED00E008B5FFF78A
:10211800EFFF0B4AD2F8883023F47003C2F88830F6
:10212800EFF3148323F0040383F31488BFF36F8F52
:1021380001F0C0FB02F0A6F900F054F801F008FC29
:1021480000ED00E042F8203C203A009B074953602C
:10215800019B21F001019360029B9161D3604FF0D4
:102168008073D3610023026543677047010F00083D
:10217800094A0346906870B113F1160F006E05D036
:10218800A0F140029A4205D8834203D2814228BF77
:102198000020704700207047C40C022015460A4AE8
:1021A8000E4608B5094B9060026F1A6000F044F8BB
:1021B8002C4686F309880020054B984720460021C5
:1021C80000220023034C2047C40C0220400B0220AD
:1021D800D5590008010F0008014B10221A617047F9
:1021E80000ED00E0002304481021C21801336E2BD3
:1021F80082F80013F9D1704700E100E008B5EFF369
:102208000583064A103B02EBC30152F833004968C4
:102218008847BDE80840FFF787BC00BFB86C0008D6
:10222800024B0121024A034800F0ECB800000820E4
:1022380000000220BC710008026E4021044B403AA5
:1022480018461A60034AC3E90112012100F0E4B8F4
:10225800440B022000000B15134A98B5C2F89800E9
:1022680000AF0B688AB023F01F03034343F0100349
:10227800C2F89C308B6843F00103C2F8A0306A466C
:102288000C688B680949C2E908435161062308496B
:10229800C2E9061042F8103F00234FF444510548A4
:1022A800FFF7FEF8BD4698BD00ED00E0DC7B0008B6
:1022B800B27C0008EC700008164AF8B5D2F89020F5
:1022C80000AF03460D46C2F30722013A904209D9EE
:1022D8006FF01504104A0121104803F0A7FA2046B0
:1022E800BD46F8BD6E4688B004466A460C4B53613D
:1022F8000C4BC2E90630042342F8103F00234FF488
:1023080004510648FFF7CCF829462046B546FFF7A2
:10231800A3FFE4E700ED00E0F37B0008EC700008A1
:10232800197C0008BE7C00082DE9F04F87B00546EF
:1023380088469946104600AF0026DFF88CA0DFF8E3
:102348008CB0464510DA6B68002B3AD0B9F1000F13
:1023580013D05A1E13420BD01D4A334601211D4883
:1023680003F064FA6FF015001C37BD46BDE8F08F26
:102378001F2BF1D92B681A42EED1C7F804D088B0C8
:102388006A460423C4B2C2E905ABD46142F8103FDF
:1023980000234FF404510F48FFF782F82B68D7F851
:1023A80004D007F10C01FB60D5E9010303F022FB1F
:1023B800034320467B61FFF77FFF10F1160FD1D052
:1023C800013001360C35BCE7617C0008D77C000879
:1023D8003E7C0008EC700008044B0522C3F89420EA
:1023E800BFF34F8FBFF36F8F704700BF00ED00E062
:1023F800BFF35F8F024B0022C3F89420704700BFE1
:1024080000ED00E010B5034C01232278FFF78CFFA4
:10241800207010BDF30C02200B4A08B50023127877
:10242800FFF782FF10F1160F07D0084A0021D2F8F3
:102438009030C3F30723984200DB08BDC2F8980028
:102448000130C2F8A010F2E7F30C022000ED00E022
:102458002DE9F0475E4A84B05E4ED2F89030356878
:1024680000AFC3F307239D4200F2AE806C4688B0EC
:10247800D2F890306A465849C3F307235161D361B3
:1024880004235649916142F8103F00234FF4045148
:1024980053484FF00C08FFF703F8A5460024FFF750
:1024A800A7FFAC421BD34F4C3846DFF83C81257060
:1024B800FFF7B4FA00250646DFF83091DFF830A1BF
:1024C800AE4214D1237800204149D1F89020C2F3BC
:1024D8000722934272DB0020FFF77EFF42E071681B
:1024E800204608FB04110134FFF7B6FED9E7386827
:1024F8004FEA051C00EB0511CB6803EA0803B3F5A6
:10250800000F45D00AD8B3F5001F2FD0B3F5800FC0
:1025180035D0B3F5801F10D00135D1E7B3F1807FF6
:102528003FD0B3F1007FF7D150F80C30886803F042
:1025380061FA4A6840F4802009E050F80C30886855
:1025480003F058FA40F088504A6840F43020F860A8
:10255800391D2078C7E90123FFF7AEFE002829DAE4
:102568006FF015001037BD46BDE8F08750F80C3005
:10257800886803F03FFA4A6840EA0900E7E750F83C
:102588000C30886803F036FA4A6840EA0A00DEE749
:1025980050F80C30886803F02DFA4A6840F08270D1
:1025A800D5E750F80C30886803F024FA4A6840F000
:1025B8008870CCE7237801332370ADE7C1F89830F1
:1025C8000133C1F8A00080E74FF0FF30CAE700BF31
:1025D80000ED00E0C8710008887C0008A37C0008B2
:1025E800EC700008F30C02200000F0FF0000081156
:1025F80000000206F0B587B007460E4614460021D3
:10260800102268461D4604F041F902232A46214655
:102618008DF802306846044BCDE90476019302F048
:102628007DF907B0F0BD00BF1D5A000808B5024B80
:102638001B689847002008BD500B0220034B044A32
:102648001860937843F0020393707047500B022090
:10265800100002200649074821F00701C1F1005285
:1026680008B502F5002202F007FD002008BD00BFF2
:10267800C7220220540B02202DE9F0410546002410
:102688004FF001080E4E0F4F2B7871691A19D2B20C
:1026980008FA02F201EA02008A4309D153FA84F3E4
:1026A800706157F833201AB107EBC3035968904794
:1026B80001346A78E3B29A42E6D2BDE8F08100BFFD
:1026C800003C0140600B0220044B184400230133F6
:1026D80000F8012B9942FADC704700BF080302207A
:1026E80007B5062201210020FFF7EEFF0022062091
:1026F8001146FFF7E7FC012107220846FFF7E4FF30
:10270800002207201146FFF7DDFC082201210220E4
:10271800FFF7DAFF002208201146FFF7D3FC092251
:1027280001210320FFF7D0FF002209201146FFF7FF
:10273800C9FC0A2201210420FFF7C6FF00220A2053
:102748001146FFF7BFFC052117220846FFF7BCFF1B
:10275800002217201146FFF7B5FC282206210A207F
:10276800FFF7B2FF002228201146FFF7ABFC4FF419
:10277800804344220648CDE9002383681B6823B1BF
:102788006946984703B05DF804FB6FF05700F9E716
:10279800586A0008034660B1B0FA80F2C2F11F021D
:1027A800D2B205498856054A11680B431360FFF7F2
:1027B8007BBCFF22F5E700BF08030220003C014074
:1027C800024A136823EA000313607047003C014083
:1027D800032921D8DFE801F0020C10190F4B9A6881
:1027E80022EA00029A60DA6822EA0002DA60704798
:1027F8000A4B9A680243F5E7084BDA680243DA6045
:102808009A6822EA00029A607047044B9A68024369
:102818009A60DA681043D860704700BF003C0140F6
:1028280030B5B0B1B0FA80F3C3F11F03DBB20B4887
:1028380050F833408C4204D100EBC3056D689542D3
:1028480005D044B940F8331000EBC30042600020C3
:1028580030BDFF23EBE76FF00F00F9E7600B0220B4
:1028680060B1B0FA80F3C3F11F03DBB2044A002160
:1028780042F8331002EBC30251607047FF23F5E7BB
:10288800600B022000F003020F23043292009340F1
:10289800074A43EA9000C3B2023352F82320030CDC
:1028A80093FAA3F302EA1040B3FA83F3D8407047CF
:1028B8000038014038B5254B14460D4618680B887A
:1028C800C3F30B02092A1DD0072A134611D8CAB12F
:1028D800931E052B06D8DFE803F03003302E1E25A3
:1028E8004FF4FA4020602B68B3F5805F27D20020B0
:1028F80038BD402A0DD008D822F00402302AF1D081
:10290800382BEFD06FF08500F2E7442A08D0A82AC8
:10291800F7E78008E6E700F0AFF8D82380085843C7
:102928004008DFE700F0A8F8D823800858430923B7
:10293800B0FBF3F0D6E70648D4E70020D2E7C3F3AC
:1029480013330133B0FBF3F02060D0E7800002209E
:1029580000127A0070B5444D00F0C2F8434C284686
:1029680003F00FF900F07AFDA368414AC3F303139B
:10297800D35C20FA03F613781D41AE4202D22846F2
:1029880000F09AFD236843F480232360236843F40E
:1029980080332360354B1A689103FCD55A6F42F097
:1029A80001025A675A6F9207FCD59A6802F00C0226
:1029B800082A17D11A68940707D41A6842F0010246
:1029C8001A602A4A13689807FCD5284B9A6822F09F
:1029D80003029A609A6812F00C0FFBD19A6822F0F1
:1029E800F0029A60214C236823F0807323602368E7
:1029F8009901FCD4636823F440336360636823F06F
:102A0800706343F01063636000F03AF8236843F0A2
:102A180080732360154B1A689201FCD59A6822F0DE
:102A2800F0029A609A6822F0030242F002029A6069
:102A38009A6802F00C02082AFAD1AE4202D328465C
:102A480000F03AFD0B4B0020074A1A60074A9368CA
:102A580023F4E05343F4A0539360936823F4604352
:102A680043F40043936070BD00E6DF0C0038024079
:102A7800D47E0008800002200048704700127A00C7
:102A8800114B12495A681140114A0A4311495A60B8
:102A98005A681140104A0A435A601A6842F0807214
:102AA8001A60A3F5E4331A6842F480321A605A684F
:102AB800D203FCD51A6842F400321A60074A5368F8
:102AC8009B03FCD5704700BF003802400080BCFF64
:102AD800043640000080BFF0043640090070004012
:102AE800064B82B01A6C42F080521A641B6C03F0D9
:102AF80080530193019B02B0704700BF0038024029
:102B080008B5074803F0C3FC38B10648FFF796FD3F
:102B18000448FEF7EBF9002008BD6FF01200FBE750
:102B2800386C0008312B00080A2838B50446074DD0
:102B380004D1AB680D2128465B689847AB68E1B2C1
:102B480002485B689847204638BD00BF386C0008CB
:102B58002DE9F843D0F804801746D0F810900D46B8
:102B6800D8F808001E4602F060FFB7F5001F0446BB
:102B780016D1D8F808402846FFF784FE84420CD1C5
:102B8800294602F052FF0446FFF71AFE2046FFF7D7
:102B980067FE00212046FFF71BFE0020BDE8F883F2
:102BA800B7F5800F20D0B6F1806F19D0B6F1C06F9D
:102BB80018D0B6F1007F1AD102264A460F4920469E
:102BC800FFF72EFEB0B9D8F80810284602F030FFFB
:102BD80020463146FFF7FCFD2046FFF7DBFDDCE72A
:102BE8000126EAE70326E8E76FF08500D6E76FF0ED
:102BF8001500D3E76FF00F00D0E700BF0D5E0008A7
:102C080038B50369044658600A4D284603F03FFC6E
:102C180060B1AB6861681B680C3123B128469847DE
:102C280000EAE07038BD6FF05700F9E76FF0120066
:102C3800F8E700BF586A00082DE9F047044600EBA2
:102C4800C10600251C4FB44201D1002014E02068C1
:102C5800C30600F01F0911D4656845F02005C0F3CC
:102C6800481AC0F34420102823D857F82080B8F118
:102C7800000F0DD16FF01200BDE8F087B9F1100F09
:102C880004D0B9F1110FEAD16568E8E73025E6E725
:102C9800404603F0FCFB0028ECD04B462A460AF0DD
:102CA8000F01404603F0C4F8002804F10804CADA0A
:102CB800E2E76FF01500DFE7C472000843681B689D
:102CC80003F1080252E8002F42F0010203F1080064
:102CD80040E800210029F3D1154A93421BD0A2F500
:102CE8004C42934217D002F58062934213D002F50A
:102CF800806293420FD002F5806293420BD002F5B6
:102D08004442934207D0A2F51C42934203D002F5F5
:102D18008062934203D15A6842F040025A6053E8F5
:102D2800002F42F4807243E800210029F7D1704750
:102D38000010014043681B6803F1080252E8002FA5
:102D480022F0010203F1080040E800210029F3D134
:102D5800154A93421BD0A2F54C42934217D002F574
:102D68008062934213D002F5806293420FD002F53D
:102D7800806293420BD002F54442934207D0A2F5F9
:102D88001C42934203D002F58062934203D15A68F1
:102D980022F040025A6053E8002F22F4807243E880
:102DA80000210029F7D1704700100140024A012193
:102DB800024802F032BD00BFDF7D00080471000840
:102DC800F8B50C46036941685D682379012B15D075
:102DD8009F1E7E427E41B6026279022A96BF444F08
:102DE8004FF4005737F81270A279022A09D0042A42
:102DF8002FD0003B18BF01231B0306E04FF4C06629
:102E0800EAE7B3FA83F35B091B07E2790968012A49
:102E180014BF4FF0000C4FF4407CA5421CD10A6847
:102E280022F0805222F4B05232431A430A604B68AF
:102E380023F440533B434B6043681A68936823F478
:102E4800407343EA0C0393602968BDE8F84003F037
:102E580058B94FF48053D8E7D1F800E00EF4C06EAB
:102E6800764506D0D1F800E02EF4C06E4EEA06068C
:102E78000E6041680E68716801F440518F4204D0B9
:102E8800716821F440513943716041680E683168B6
:102E980001F010218B4204D0316821F010210B433E
:102EA8003360436819688B6803F440739C4505D008
:102EB8008B6823F4407343EA0C038B6043681B68F8
:102EC8009968490405D5032A09D09A6822F48042F2
:102ED80004E0032A03D19A6842F480429A60216888
:102EE8002B68994203D003F00CF923682B60F8BDD6
:102EF8008C7400082DE9F04383B0054646680469E0
:102F080000AF6F48206003F0C2FA58B96D4A6FF0FD
:102F1800120401216C4802F080FC20460C37BD46A3
:102F2800BDE8F0832068F16883681B683BB9674A8D
:102F3800012165486FF0570402F06FFCEDE79847F0
:102F4800044600BB3A1D0021306A02F089FF041EC6
:102F5800E3DB7B68002219791868FFF76DFE041E11
:102F6800DBDBD5F804802B69D8F80040D3F804904F
:102F7800236823F001032360D8F8040003F087FADC
:102F880048B9534AC3E7514A01214F4802F045FC6A
:102F9800002CC2DBD6E7D8E901018368DB6803B1FE
:102FA800984754E8003F43F00C0344E80032002AF5
:102FB800F7D149462846FFF703FF98F814301BB1AC
:102FC800A36843F00803A36098F815301BB1636841
:102FD80043F40043636098F816301BB1636843F408
:102FE8008033636098F817301BB1636843F400338B
:102FF800636098F81830002B52D0364B9C4232D080
:10300800A3F54C439C422ED003F580639C422AD002
:1030180003F580639C4226D003F580639C4222D04E
:1030280003F544439C421ED0A3F51C439C421AD08E
:1030380003F580639C4216D06C4688B02B686A46BC
:103048002549C2E905134FF400739383234B42F8D3
:10305800103F00234FF4E2511B48FEF721FAA54622
:103068006FF0150459E76B681A68936843F4804356
:103078009360236898F8192023F0787343EA425341
:103088002360236898F81A2023F4F81343EA0243CC
:10309800236098F81B301BB1A36843F40043A36076
:1030A800236843F001032360E3699A02FCD5E369CE
:1030B8005B02FCD5736A2846002498472DE700BFB9
:1030C800586A00080D7E0008047100082C7E00086C
:1030D8004C7E000800100140677E000803000001D4
:1030E800F8B5436802460E4691F805E01C68036986
:1030F80008795D6801288B791ED1BEF1020F72D95B
:10310800022B1F464FF4C0614FF4005C00F083802F
:10311800042B7BD020B1C31E012B79D94FF48050EA
:10312800BCF5805F00F08180BCF5405F7FD0BCF1CA
:10313800000F1CD101231BE002280AD1BEF1020FA7
:103148005DD9022B1F464FF480610BD04FF4005C11
:10315800DEE7BEF1020F55D9022B1F4654D10028D5
:103168005FD00021C31E012B52D900200227032360
:1031780073454DD102F0C0FEB84249D1F37903B38B
:10318800012B56D12C4B9C421BD0A3F54C439C429F
:1031980017D003F580639C4213D003F580639C42EB
:1031A8000FD003F580639C420BD003F544439C4247
:1031B80007D0A3F51C439C4203D003F580639C42CF
:1031C80026D123683146104623F001032360FFF718
:1031D800F7FD236843F00103236096E8030085E8C0
:1031E80003000020F8BD4FF4C061144F022B37F8DC
:1031F8001EC01F468CD170B94FF0805090E74FF435
:103208008061F2E70021F0E700219FE7002885D0E0
:103218006FF08500E6E7C31E012BF9D902270020CD
:103228007EE701464FF08050A1E70023A0E7022384
:103238009EE7032BA6D0EBE7001001408C74000832
:103248004FF0E0230F4910B59C691A6908689B691B
:1032580002F480320C4934B993B903464AB90A6872
:103268001044C01A10BD002B08BF03460AB9A34278
:10327800F5D90A6802440A604FF0E0221269EEE7C5
:103288000446F3E7C00C0220BC0C02200A4B1022B3
:10329800002083F8232045F26042084B1A6045F26B
:1032A8005F42074B18604FF0E0235A6198611A6932
:1032B80042F007021A61704700ED00E0C00C0220DE
:1032C800BC0C0220684620F007018D4619B5FFF7AF
:1032D800B7FF1149114B0868D3E90042001942F1C0
:1032E8000002C3E900020E4A00230B6045F2604366
:1032F800D2E90041001BB0FBF3F043431B1941F135
:103308000001C2E9003101F0A5F9FEF70DFCBDE8A6
:1033180019408546704700BFBC0C0220580902209E
:10332800500902202DE9F041DFF8E08099B1421CF4
:103338000BD14FF0E022136923F0010313614FF022
:103348007F43C8F80030BDE8F081D8F80060012854
:1033580007DC00270BE0431CD8F80060F7D140F2E7
:103368000730B0F5427FA8BF4FF44270471EEFF315
:103378001185102383F31288BFF36F8FFFF760FF67
:10338800234C4FF0E0239969D4E9002380184FF0CB
:10339800000243F10003C4E900031E4B1A601E4BF0
:1033A8001A68831A2ED445F2604C0CFB073303F5D8
:1033B800A8435F33B3FBFCF7131A40F246520CFBE9
:1033C8000733934238BF1346144A934228BF134623
:1033D800C8F800304FF0E022013B906953610023A8
:1033E80081429361A1EB0003D4E9001238BF9B1915
:1033F8005B1842F10002C4E9003285F31188BFF37B
:103408006F8FA0E740F24653E2E700BFC00C0220EE
:1034180058090220BC0C022050090220A06EFF00AF
:1034280038B5EFF31185102383F31288BFF36F8F3C
:10343800084B1C68084B1B68E41AFFF701FF85F36B
:103448001188BFF36F8F45F260432044B0FBF3F05F
:1034580038BD00BF5809022050090220134908B599
:103468008B6803F00C03042B1BD0082B1BD14A6874
:103478004B68496802F03F0213F48003C1F38811D6
:103488001ABF0B4800230B48A1FB0001FCF7B0FE54
:10349800064B5B68C3F3014301335B00B0FBF3F0F9
:1034A80008BD0348FCE70348FAE700BF00380240BC
:1034B80000127A000024F40000285DD02F4B1A680F
:1034C8001B6802F44042B2F5404F33D113F4803305
:1034D80010D102F10F6202F58C52904248D8284A66
:1034E800904247D8274A904235D8274A904209D96E
:1034F80002230DE0254B984238D8234B98424FF0D1
:10350800060305D8224A904202D9012B38BF01236D
:1035180020490A6822F00F021A430A600A6802F07A
:103528000F02934202D00A6802F00F02981A18BFDD
:103538000120704703F44043B3F5004F05D103F170
:103548000F6303F5A343984212D80D4B984211D844
:103558000C4B984201D90323DAE70B4B9842C7D8A2
:103568000B4B984294BF00230123D1E70723CFE7F1
:103578000523CDE70423CBE7012070470070004006
:10358800000E2707804A5D05008793038058840C46
:1035980080C3C901003C0240F8B546680469B568B3
:1035A800284602F074FF10B96FF01200F8BD3068B9
:1035B80050B9284602F067FE284602F05FFEAB6865
:1035C80033BB6FF05700F1E702F061FF0028EBD042
:1035D80030683179F388DA07D0F810C04FF0010766
:1035E800D0F808E054BF43F4D01383F4B013DCF8E8
:1035F80000608F4023F48012DB074CBF3E43BE437C
:10360800CCF80060DEF8003098470028D1DACBE724
:103618009B6C002BD5D02246284612499847611D3D
:1036280004F584704FF48073012202F076FF4FF4A2
:103638008073012204F5987104F50C7002F06DFF97
:10364800012204F51670114602F08FFF01220021B5
:1036580004F51A7002F089FF284602F019FE0020CE
:103668002071A3E7A362000873B543680D46066995
:103678009C68204602F007FE0F4BB3FBF5F333605E
:10368800A3681B691BB96FF0570002B070BD69468B
:10369800204698470028F8DB0095A368DB68002BD4
:1036A800F1D06946204698470028EEDB204602F014
:1036B800EFFD0020E9E700BF8096980010B50446AA
:1036C800FDF71EFE03480121034A02F0A6F8204632
:1036D80002F0E8FEF4700008EB7E00082DE9F843DC
:1036E800044600AF0D46EFF31188102383F31288C8
:1036F800BFF36F8F0428294AE9468AB098BF284B40
:103708009668117C6A4694BF53F82030254BC2E96D
:10371800073140F2013324489384244BC2E905045D
:1037280042F8103F00234FF431512148FDF7B8FE0D
:10373800CD4645B1EB69C3F3080323B11D4A012106
:103748001B4802F06AF82EB1304602F023FF08B198
:10375800037803B91848E9468AB06A46174BD0611E
:10376800C2E9053640F201331384154B42F8103F85
:1037780000234FF411510E48FDF792FE29462046CA
:10378800CD46FFF79BFF88F31188BFF36F8F304654
:10379800FEF732FCBD46BDE8F88300BFC40C02202A
:1037A80060740008FA7E0008107F00080500000118
:1037B800F4700008387F0008087F0008597F000867
:1037C8000400000138B50A4B53F82040013053F883
:1037D8002050A54200D838BD606830B1037FDB07B0
:1037E80001D402F067FE0834F3E723689847FAE744
:1037F800747400082A4B0122032070B5294C86B046
:10380800294D1A70FFF7DEFF01F046F80420FFF794
:10381800D9FF26463034AE4210D3224C00F0DCFBF0
:10382800224EAC4226D300F0EBFBFCF75FFF204AA8
:10383800137B23F00103137306B070BD54F80C3CDE
:10384800059354F8103C049354F8143C039354F82B
:10385800183C029354F81C3C019354F8203C009304
:1038680054E90A2354E90C0100F0ECF954F8303C0F
:103878005E65CEE7D4E90A23B3F1FF3F08BFB2F192
:10388800FF3F05D052EA0301206803D100F0AEFCE7
:103898003034C6E73146183000F04AFEF8E700BF7A
:1038A800F40C022028700008287000088F660008B1
:1038B800E009022006480021064A08B5121A02F05B
:1038C80010FE0548054A0021121A02F00AFE08BD3A
:1038D80090030220F80C02200000002000000020C5
:1038E80070B5002386B00122144E01930446144D8E
:1038F80006EBC0161349CDE904230F22CDE90232A5
:1039080014234FF4A07203FB00554FF4C0700E4B04
:1039180000FB04113046009500F094F9737B0B4AC4
:1039280023F00403EE602C7473734FF4046304FBF8
:10393800033313446B6006B070BD00BF60090220FA
:10394800C40C0220001D0220F3640008C0140220E9
:10395800BFB50020FFF736FF284B83F30888284DB2
:103968000024F023274F85F82230EC772C766C76EC
:10397800AC7685F820406B6A43F4E0236B62FEF76F
:103988000BFBFEF729FC4FF0FF33AB62EB62FEF74F
:103998005FFD1D4DFEF744FCFDF714FC1B4800F0CD
:1039A800EDF902F073FDFDF7CBFA0120FFF70AFFEE
:1039B8000220FFF707FF00F073FB154B15494FF482
:1039C80080625D612846144B009405930123CDE97C
:1039D8000144CDE903433B4600F034F96A7B0646CF
:1039E800284622F004026A7302F010FE2046FFF710
:1039F80077FF3A4631462846FEF7D0FB001D0220E5
:103A080000ED00E0FD370008E0090220600A02200E
:103A1800C40C0220801E0220BB7F00082DE9F34160
:103A280004460E4600F10808EFF31187102181F3D0
:103A38001288BFF36F8F006AE168884233D2256825
:103A4800AC4219D0C5B1284602F05AFD05F118005C
:103A580002F08DFEA26800243146286902F008FFB2
:103A68002846AC6702F0D2FD4046394600F08EFA8F
:103A7800204602B0BDE8F081A2683146E06902F054
:103A8800F7FEE369A2680020134462699342E36188
:103A980004BF2369E361236A0133236287F3118832
:103AA800BFF36F8FE5E752EA03010AD006494046A3
:103AB80089680E613946CDE90023224600F044FAB0
:103AC800D7E76FF02200E9E7C40C0220F7B50446F7
:103AD800084604F10807EFF31186102181F31288D4
:103AE800BFF36F8F216A002939D0A268A16902F05B
:103AF800BFFEA369A2682568134462699342A36163
:103B080004BF2369A361AC42236A03F1FF33236234
:103B180033D02846002D31D002F0F2FC05F1180010
:103B280002F025FEA2682969E06902F0A1FEE369B6
:103B3800A2682846134462699342E36104BF23697B
:103B4800E361236A013323620024AC6702F05EFD5F
:103B58003846314600F01AFA204603B0F0BD52EA62
:103B6800030110D009498968086131463846CDE912
:103B78000023224600F0E8F9EFE7002086F31188D9
:103B8800BFF36F8FE9E76FF02200F7E7C40C02205C
:103B980070B5EFF31186102383F31288BFF36F8F8C
:103BA8000468A0421AD0CCB1002504F11800D4E969
:103BB800003213605A60637BA56023F00203C4E9F6
:103BC8000055637302F0D3FD2046A56702F01EFD81
:103BD80031460848BDE8704000F0D8B9D0E9023253
:103BE8009A4218BF0133836086F31188BFF36F8F41
:103BF80070BD00BFF50C022013B5EFF3118110243E
:103C080084F31288BFF36F8F846844B1013C8460E9
:103C180081F31188BFF36F8F002002B010BD52EA04
:103C2800030406D181F31188BFF36F8F6FF00F0083
:103C3800F3E7CDE900230246014800F085F9ECE7F7
:103C4800F50C02202DE9F04F85B01E4600F158030F
:103C58000D4604AF00214FF0040C044605F1400A5C
:103C6800816080F80DC0C173C0E91633BB6B037364
:103C78007B6B8373D31D23F007037F3323F03F034C
:103C88003F2BA3F14009C0E9061105D881F311883B
:103C9800BFF36F8F604602DFEB468EB005EB03087B
:103CA80004AA1C49C2F8308051611B49C2E9084383
:103CB8000923C2E90615C2E90AA942F8103F002300
:103CC8004FF492411548FDF7EBFB41462046DD468F
:103CD800FDF70AFF07303B6B294620F00700C4E9CF
:103CE80018A9A066A8EB000802932046FB6A424682
:103CF8000193BB6A00933346FEF724FA00236365F9
:103D0800074B9B6803B1DB6E40460437E366BD464C
:103D1800BDE8F08FC37F000814800008F470000825
:103D2800C40C0220F0B5002587B004460595109D07
:103D380004950F9D03950E9D02950D9D01950C9D73
:103D4800DDE912760095FFF77DFFB6F1FF3F08BF6A
:103D5800B7F1FF3F05D056EA070305D1204600F02A
:103D680045FA204607B0F0BD3A46334604F118003C
:103D7800014900F0DDFBF4E78F66000840F201130B
:103D880083810023C0E91833C366014B98607047EC
:103D9800C40C0220094A6FF00A0193689967084920
:103DA80058674B6843F080534B60002383F31188B6
:103DB800BFF36F8F9368986F704700BFC40C0220E1
:103DC80000ED00E070B590F90D20437B002A36DB4A
:103DD800D90634D11B4C63F07F0322464373E16953
:103DE80052F8183F934207D1C0E900210860E0610A
:103DF80011E09942F8D01B68002BF5D090F90E50CD
:103E080093F90E60B542F4D0AE42F2DD5968C0E9CC
:103E1800003108605860A569954200D005B9E56889
:103E2800A3685A7BD20604D1DA897F2A01D9AA6904
:103E380032B1AB4202D0284600F0CCFA656170BDC1
:103E48006361FCE7C40C022038B590F90D200146E7
:103E5800437B002A04DA03F07F03437302F09CFBE0
:103E68000D4D2A46AB6852F8184F944200D004B959
:103E7800EC688B4207D05A7BD20604D1DA897F2AB4
:103E880001D9A2692AB1A34202D0204600F0A2FAC1
:103E980023466B6138BD00BFC40C0220B3F1FF3F5D
:103EA80008BFB2F1FF3F03D00249183000F040BB11
:103EB800704700BF8F66000870B590F90D20014665
:103EC800437B002A04DA03F07F03437302F064FBA8
:103ED8004B7B1C4C63F07F0322464B7352F8183F10
:103EE800E069934207D1C1E900200160E16111E076
:103EF8009842F8D01B68002BF5D091F90E5093F931
:103F08000E60B542F4D0AE42F2DD5868C1E9003027
:103F180001605960A569A368954200D005B9E568B4
:103F28008B4207D05A7BD20604D1DA897F2A01D97D
:103F3800AA692AB1AB4202D0284600F04BFA2B46B8
:103F4800636170BDC40C0220F8B50E4B0C461146D7
:103F58000D4A9868DDE906671060EFF311821022B8
:103F680082F31288BFF36F8F9D68284602F026FB04
:103F7800284632463B46FFF791FF2046BDE8F84009
:103F8800FFF708BFC40C0220E40C022049B9EFF384
:103F9800058030B9054B5A699B689A4201D0FFF7F2
:103FA800F9BE81F31188BFF36F8F7047C40C0220EC
:103FB800034648B9EFF3058232B9064A5169926857
:103FC800914201D0FFF7E6BE83F31188BFF36F8FEC
:103FD800704700BFC40C0220EFF31181102383F354
:103FE8001288BFF36F8F054B9A68D37B013BD3735D
:103FF80081F31188BFF36F8F704700BFC40C022094
:10400800F8B500AFEFF31186102383F31288BFF3DE
:104018006F8F1F4DAB68DA7B0132DA732A4652F88C
:10402800184F944200D004B9EC685A7BD20604D1E8
:10403800DA897F2A01D9A2692AB1A34202D020468F
:1040480000F0C8F923466B6186F31188BFF36F8FC0
:10405800AB686C468AB0D97B6A460E4811625061DB
:104068000D48C2E90603052342F8103F00234FF428
:1040780024510A48FDF714FAA546EFF311801023DE
:1040880083F31288BFF36F8FFFF792FFBD46F8BD29
:10409800C40C0220278000086F800008F470000814
:1040A800024B03F11802C3E906227047C40C022030
:1040B80070B5EFF31186102383F31288BFF36F8F67
:1040C8001B4CA168E0690B68814214BF1A460022A4
:1040D80049680B605960A368E1692AB9154AC3E9C0
:1040E80000210B60E3610CE093F90E0092F90E5089
:1040F800A84218D0854216DD5168C3E900210B603B
:104108005360A5690B4B9D4200D005B9E568A368CB
:104118009D4202D0284600F05DF930466561BDE851
:104128007040FFF737BE8A42D8D01268D5E700BF83
:10413800C40C0220DC0C02202DE9F041254D00AF13
:10414800E8468AB004460E46AB686A4622491062C1
:1041580051612249C2E90613052342F8103F0023A2
:104168004FF424511E48FDF79BF956EA0403C5464F
:1041780005D1FFF79DFF0020BD46BDE8F081EFF3B4
:104188001188102383F31288BFF36F8F154BA8682B
:104198001860FFF759FEA8682246334612491830BE
:1041A80000F0C6F9AA6804464046537B43F004036E
:1041B8005373FFF7EFFDAB68D3E90A23B3F1004F60
:1041C80008BF002AD7D102F0FAFA201A20EAE070D4
:1041D800D2E700BFC40C02204680000862800008B5
:1041E800F4700008E40C02208F66000838B5044615
:1041F800EFF31185102383F31288BFF36F8F437B8E
:104208005B070FD5183002F0B2FA637B204623F023
:1042180004036373FFF7D6FD29460548BDE8384017
:10422800FFF7B4BE85F31188BFF36F8F38BD00BFA9
:10423800F50C0220014B9868704700BFC40C02209F
:104248002DE9F8430446077BEFF31185102383F328
:104258001288BFF36F8F437B190705D585F3118843
:10426800BFF36F8FBDE8F883D90943F008025AD12C
:104278004273A36813B1204602F096F904F11800BE
:1042880004F1580802F073FAA66DB04511D04FF04A
:10429800000976B1304602F087F906F1180002F0FD
:1042A80066FA3046C6F87890FFF78CFDA66DB045E3
:1042B800EFD1DFF8B880D8F808309C423BD1EFF353
:1042C8000589B9F1000918BF4FF00109D8F818603D
:1042D800274A964200D00EB9D8F80C60B34202D0F3
:1042E800304600F077F8C8F81460B9F1000F02D032
:1042F8002048FFF743FDD8F808309C4231D1EFF34E
:10430800058373BB227BD20718D42846FFF742FDEA
:10431800FB07A7D5002383F31188BFF36F8F04230E
:10432800184602DF9EE703F07F0343F00803437358
:1043380002F032F99DE74FF00009C7E785F31188CD
:10434800BFF36F8F83F31188BFF36F8F0423184671
:1043580002DFEFF31180102383F31288BFF36F8F0E
:10436800D4E785F31188BFF36F8FD1E7C40C02201F
:10437800DC0C0220600A0220044B0122C01A044B04
:10438800C0105843034B1A54704700BFE00A02207C
:10439800ABAAAAAAF50C0220C3897F2B12D80A4B14
:1043A8001B6863B1094B90F90E201B689A4209DB20
:1043B800437BDB0606D1064BC31A18BF012303F063
:1043C800010070470023FAE7FC020220E80C0220F3
:1043D800600902200E4B70B51E7C05460D4C06EB9D
:1043E800460304EBC304204602F0C1F90A4B00223D
:1043F80028469A55FFF7D0FF48B1084B2046084990
:104408001A68013ABDE87040D31700F091B870BD42
:10441800C40C0220E00A0220F50C0220FC02022053
:104428008143000838B5EFF31185102383F3128810
:10443800BFF36F8F104B114A9C681068A04206D1D9
:10444800FFF7C8FF85F31188BFF36F8F38BD0021D0
:104458001B7C11600A4AD35C002BF3D02046FFF77F
:104468009BFF0028EED0637BDB0602D12046FFF7D6
:1044780023FD2046E4E700BFC40C0220E40C022020
:10448800F50C02200A480B4A0B49121A08B502F02B
:104498002AF80A480A4A0B49121A02F024F80A486C
:1044A8000A4A0B49121ABDE8084002F01CB800BFBE
:1044B800000002208C030220C880000800000220AF
:1044C80000000220C8800008000000200000002032
:1044D80054840008024B1868984208BF00207047AF
:1044E80000030220034B1B680BB9FEF799BF00209D
:1044F800704700BFEC0C022030B570B10B4B5B6805
:1045080098420AD0036843B1D3E90421D0E90445AD
:10451800121941EB0501C3E90421D0E90032136007
:104528005A600023C0E9003330BD00BF00030220F9
:10453800B3F1FF3F08BFB2F1FF3F2DE9F84F044642
:10454800994615461F467BD08160EFF311881023EA
:1045580083F31288BFF36F8F0132DFF8ECA079F193
:10456800FF3320DBFFF7BEFF0135064649F100099E
:104578002D18DAE9002749EBE0734FF00109C4E987
:104588000453AD1843EB0707FFF7A4FFDFF8BCE0BF
:104598000346DEF804A0EBB9C4E900EACAF8004013
:1045A800CEF8044028E0DAE900126FF001035B1A44
:1045B8004FF0FF3161EB02025B1B62EB0902012B3A
:1045C8004FF0000972F10001BCBF01230022C0E9CD
:1045D8000432D9E7D3E9041CD4E904208A4270EBF9
:1045E8000C0B24DA891A5A686CEB0000C3E9041032
:1045F800C4E9003214605C60FFF76CFF84420ED19E
:10460800134B1B685BB9B9F1000F02D1FFF76AFFC2
:104618000646304602F094F80021FEF783FE88F340
:104628001188BFF36F8F28463946BDE8F88F521AB4
:1046380060EB0C009A45C4E90420ADD01B68AAE7DA
:1046480000252F46EFE700BFF80A022000030220EA
:10465800EC0C02202DE9F047EFF31185102383F3CA
:104668001288BFF36F8FDFF8A4900026DFF8A080D0
:104678000027C9F80000FFF72DFFD9F80030D8E966
:1046880000ECD91750B1D0E90442A34271EB020AF9
:104698001CDAE41A62EB0102C0E9044213EB0E03D0
:1046A8004FF000044CEB01012046C9F80040C8E96E
:1046B800003102F045F82146FEF734FE85F31188F3
:1046C800BFF36F8FBDE8F047FFF7ACBE14EB0E02E7
:1046D8004CEBE473C0E90467C8E90023FFF70CFF5B
:1046E80085F31188BFF36F8F83689847EFF31185BF
:1046F800102383F31288BFF36F8FD9F800301B1B88
:10470800C9F80030FFF7E6FEB7E700BFEC0C02205F
:10471800F80A022010B5EFF31184102383F31288EE
:10472800BFF36F8FFFF7DEFE054A0346D2E90001AB
:10473800181841EBE37184F31188BFF36F8F10BD34
:10474800F80A0220F8B50446EFF31187102383F323
:104758001288BFF36F8F026822B187F31188BFF305
:104768006F8FF8BDD0E90A36581C46F100010228BF
:1047780071F1000127D3012B76F10001BCBF0123A1
:1047880016465D1E46F1FF3602F01DF8013041F174
:104798000001401946EB0101012871F1000139DBE4
:1047A80002F011F801306FF0010241F100014019E7
:1047B80046EB0103121A4FF0FF3161EB030318496E
:1047C8002046FFF7B5FE236B01332363236A6BB1E1
:1047D80087F31188BFF36F8F236A20469847EFF35A
:1047E8001187102383F31288BFF36F8F54F8185F73
:1047F800A542B2D0002DB0D0284601F016FF002304
:10480800AB6787F31188BFF36F8F2846BDE8F84080
:1048180001F0FCBE6FF001024FF0FF33CFE700BF9D
:104828004D4700082DE9F04105461C4690461F46B5
:10483800EFF31186102383F31288BFF36F8FB4F15F
:10484800FF3F08BFB2F1FF3F05D186F31188BFF3E0
:104858006F8FBDE8F081531C74F1FF3309DB012A27
:1048680074F10003BCBF0122002412F1FF3844F1A7
:10487800FF37284601F07BFF002342462B633B4667
:10488800DDE90601C5E90A0128460249FFF750FE9D
:10489800DBE700BF4D470008014800F09DBC00BFA2
:1048A8007E80000838B5064C064DAC4201D3002086
:1048B80038BDD4E901122046143401F0B5FFF4E7FD
:1048C8007C0302207C0302200CB430B58BB0044674
:1048D8000D462022002102A801F0D8FF02238DF8FE
:1048E8000A30002D0C4B0393069412DB01D06B1E8B
:1048F8001C440FAA0E99079402A8019200F00EF822
:1049080015B1069B00221A700BB0BDE8304002B00A
:1049180070470024EDE700BF6B6900082DE9F04FF0
:104928008DB043680293837815469A07804640F114
:104938000D8100240E78002E00F00A81252E0BD060
:104948004B1C03930134029B41463046984700288C
:10495800C0F2F6800399EDE74E788B1C252E039361
:10496800F0D00027B946BB46BBF11F0F38D8A6F1D7
:104978002003102B0AD8DFE803F02A0909300909B7
:10498800092109090928092D09091F00A6F1300381
:10499800092B33D92A2E37D11BF0400F55F8043B89
:1049A80040F08280002BA7BF4BF0200B9946C3F143
:1049B80000094BF0280B01E04BF0010B039B13F8A7
:1049C800016B0393002ECFD130E04BF0020B4BF07C
:1049D800040BF3E74BF0080BF0E74BF0100BEDE797
:1049E800BBF17F0F19D8A6F13003092BD2D81BF0E1
:1049F800400F03D00A2101FB0737DFE70A2101FB3B
:104A080009394BF0200BD9E72E2E06D11BF0400FA9
:104A180040F09E804BF0400BD0E76C2E31D02BD865
:104A2800682E36D06A2E3CD04C2E3AD0002F46F055
:104A38002003B8BF2BF04002A3F16501BCBF1FFAE9
:104A480082FB0027022901D9612B2FD1073525F0D8
:104A58000705DFF8ACA2083507271BF0080F66D05A
:104A68000AEB070B56465E4563D1A4EB0A0A06EB30
:104A78000A02A9EB07096FE1742E9FD07A2E9DD008
:104A8800D4E71BF0800F18BF4BF4007B4BF0800B72
:104A980094E71BF4807F18BF4BF4007B4BF4807BBA
:104AA8008CE74BF4207B89E71F4687E7A6F1630173
:104AB800122900F2F080DFE811F013004F00EE0039
:104AC800EE00EE00EE004F00EE00EE00EE00EE000D
:104AD800EE00FE00E900EE00EE001B00EE00AF0065
:104AE80055F8043B8DF8183001270DF1180AB4E782
:104AF80055F804AB834BBAF1000F08BF9A461BF078
:104B0800400F14BF39464FF0FF31504601F0C6FE42
:104B18000746A2E7029B41462020984700280FDB62
:104B2800013EB742F6D34C44A41BB14698E74E4623
:104B3800F7E716F8010B029B41469847002892DADE
:104B480098F8023043F0040388F802304FF0FF343D
:104B580020460DB0BDE8F08F1BF0800F34D01BF459
:104B6800007F2CD0073525F00705AA4669685AF852
:104B7800080B2BF010050029ADB237DA404261EB83
:104B8800410145F480650DF1180B0A235A4601F0DE
:104B980091FEA0EB0B0301936B0662D5019B25F0F8
:104BA80001019F4289B240F3A180002E00F0998054
:104BB80015F0100240F09C80BB460D4623E0AA4643
:104BC8005AF8040BC117D4E7AA461BF4807F5AF899
:104BD800041B01D10846F5E71BF4007F15BF48B256
:104BE80008B241F3C01141F3C031C2E750EA0103F2
:104BF800C9D11BF0400FC6D0002FC4D12BF0110231
:104C080095B2BB46019740F2064115EA01021CBF66
:104C18000BF1010B00222CE02BF010021FFA82FB93
:104C28000A231BF0800C49D01BF400711DBF073507
:104C380025F00705AA46AA461ABF5AF8080B69685C
:104C48005AF8040B50EA010545D12BF016051BF064
:104C5800400FADB242D0002F40D12BF0170295B2D1
:104C6800019715F0100248D0019B002E42D103F1A4
:104C7800010B29075AD4EB0706D5D9456FDD0199F1
:104C8800A9EB0B035F18CB465B4649E04BF0100BD2
:104C980010237826C5E7782B04D1C6F1780343F0B2
:104CA8001003BEE7029B4146252098470028FFF6DF
:104CB80047AF023447E608230026B2E7AA461BF4AA
:104CC80080715AF8040BBDD01BF400711ABFC0B232
:104CD800614680B2B6E72BF0060295B20DF1180BCB
:104CE80054E725F01105ADB2BB468CE70D46B8E791
:104CF8003B460D4603F1020BBBE7DDF804B082E743
:104D0800C0800008B9800008CDE904324146029B02
:104D1800202098470028FFF613AF049B059A01331B
:104D28009945F1DCA4EB0B01CC189B460AB3029B16
:104D38004146302098470028FFF602AF8EB901346B
:104D48002744019B391B994224DC1D465DBB019A0F
:104D5800A9EB0B09224455461446914435E0019FBE
:104D680092E7023441463046029B98470028E7DA2A
:104D7800E6E640F206410D42E2D015F0020F14BFFC
:104D88002B20202015F4806F04F10104414618BF40
:104D98002D20E9E7029B414630209847002804F17E
:104DA8000104CEDACCE606AB013D4146585D029BD4
:104DB80098470028CADAC3E6029B41462020984754
:104DC800002804F10104FFF6BBAEA9EB0403002B95
:104DD800F2DCBFE57047FCF763BB0A2180FB0101E9
:104DE80001F086BC836800EBC101B3F5004F2CBF0E
:104DF80051F8220031F81200704700EBC1018068B9
:104E0800B0F5004F2CBF41F8223021F8123070471E
:104E1800012208B5FFF7E6FFD04008BD836800EB24
:104E2800C101B3F5004F08D34B681AB143F0010331
:104E38004B60704723F00103FAE74B881AB143F03F
:104E480001034B80704723F00103FAE75300012266
:104E5800FFF7D3BF8368B3F5004F34BF042308239B
:104E6800C91A081AC0087047B0F5004F01F10100CF
:104E780034BF042308230833A0EBD300B0FA80F032
:104E8800C0F11F0070472DE9F0410E461746032276
:104E98000446FFF7A7FF8642054607F104080AD132
:104EA8000122E368BA4023EA0203E360002344F8DE
:104EB8002830BDE8F081314602222046FFF792FFF4
:104EC80006462B4601460322204644F82850FFF7A1
:104ED80094FF3346294620460222BDE8F041FFF7F9
:104EE8008CBF70B586680D460446FFF791FFB6F58E
:104EF800004F014601D3012809D03046FFF7B4FF1F
:104F0800294602462046BDE87040FFF7BCBF70BD89
:104F18002DE9F041164604460F46FFF779FF05468E
:104F280031462046FFF774FF0544394620462A4695
:104F3800FFF78CFF31462046FFF76AFF2B463118F2
:104F480000222046BDE8F041FFF757BF2DE9F041A8
:104F580086680D460446FFF75BFFB6F5004F01462D
:104F680001D3012832D03046FFF77EFF04EB8001E1
:104F78000E6996B90122E368824020461343022253
:104F8800E3602B460D612946FFF737FF03222946C8
:104F98002046BDE8F041FFF730BF022231462046E7
:104FA800FFF720FF2946034607462046FFF725FF5F
:104FB8000322334629462046FFF71FFF39462B4672
:104FC8002046FFF71AFF02223146E1E7BDE8F081EB
:104FD800F8B50C460546FFF71BFF012226182846A0
:104FE8003146FFF7FFFEC3070CD431462846FFF7CA
:104FF80078FF21462846FFF70BFF2146221828464E
:10500800FFF786FF002221462846FFF7EBFE271A06
:10501800012228463946FFF7E5FE10EA020613D1B9
:1050280039462846FFF75DFF214632462846FFF7F6
:10503800D9FE2246211A2846FFF76AFF2146324642
:105048002846FFF7CFFE241A21462846BDE8F84037
:10505800FFF77CBF38B571B1056800222846FFF715
:10506800F9FE044601462846FFF7D8FE2146BDE86A
:105078003840FFF7ADBF38BDB2F5802F2CBF0823ED
:105088000423D21A2DE9F0418C18CD1D002625F0F5
:10509800070524F00704641B0560EE60E408214658
:1050A8002046AC60FFF7E0FE421D013031464FEA72
:1050B800820205F1100002F10707A2F11002B8BF41
:1050C8003246FF0801F0E2FB31463A462846FFF730
:1050D800BDFEA4EB07083346324631462846FFF7A3
:1050E8008CFE284631460122FFF798FE4246394693
:1050F800FFF7ACFE3B46324639462846FFF77DFEB1
:1051080021462846FFF7A2FE434632462146284656
:10511800FFF773FE214628460122FFF77FFE394636
:10512800BDE8F041FFF712BF2DE9F04706460D46EE
:10513800174698462BB398F800404FF0000A93F8AA
:105148000190A400DB7804EB430498F802301C4477
:105158004444CA4509D308F10803D8F8042039465D
:105168003046AC46BDE8F047604714F8013B0AF109
:10517800010A204648F82340FBF754F8013004445C
:10518800E7E76FF01500BDE8F08770B50025024627
:105198002846144614F8013B0BB9184609E098B1A3
:1051A8008D4207D1702B04D0A3F140023A2A0BD8C4
:1051B800002070BDA3F140063A2E05D8537801357A
:1051C800941C002BE9D00020252B224608BF80F034
:1051D8000100DEE7002070470FB407B504A951F8B5
:1051E800040B019100F097FA03B05DF804EB04B0EA
:1051F800704710B50369024613F0080009D1136817
:10520800D4689C4297BF126AE31A0120D31A0B6034
:1052180010BD00231846FAE713B501A90446FFF7A5
:10522800E8FF20B1019BE268013B13440193206A27
:10523800019BC01A013802B010BD10B504465018C1
:105248002269236AD20702D5013B184010BD984253
:1052580028BFC01AFAE710B504460A46C168FFF726
:10526800ECFF2369E06023F00803236110BD38B523
:105278008B00C2690D46016843F00203044642F8F8
:1052880021302A460168FFF7D8FFE36861682A469B
:1052980098422060204602BF236943F00803236137
:1052A800FFF7CBFF606038BD2DE9F74FC7689B4615
:1052B800C66904468846914606EB8703009316F8AC
:1052C800273003F00303022B4FF000030BD01360C9
:1052D800CBF8003023699B0713D44FF0000A5046DF
:1052E80003B0BDE8F08F56F8271013608908CBF893
:1052F8000030EFD0FFF7AFFFE368A3604FF0010A7B
:10530800EDE7A36906EB8700984716F827200546BE
:1053180012F0010AE1D012F002021FD0B8F1000F1A
:1053280003D041462046FFF7A2FF61682A4620467F
:10533800FFF783FF6060D4E90221914206D14FF064
:10534800000A2A462046FFF778FFA060A26822607C
:10535800E260226942F008022261C0E70146204665
:105368000192FFF778FFE368A360B8F1000F04D05B
:105378002168E369019A43F8212005EB08022046D9
:10538800CBF800202168FFF758FF2369206043F01D
:105398000803236116F827306FF3000306F8273057
:1053A800009BC9F80030A9E770B504461546FFF719
:1053B80044FF2368834205D12369216023F0080351
:1053C800236170BDAB00E269204643F0020342F856
:1053D80021302A466168FFF730FF6060F1E738B591
:1053E800036904465B0706D5456AFFF715FF854242
:1053F8002CBF6562606238BD38B50D461C2200219D
:10540800044601F043FAEB680022A361AB686361CC
:105418002B68E3616B68626223622A6923B1591EB3
:10542800194208BF42F001022261012204F128005A
:105438000021BDE8384001F098B82DE9F04F87B059
:10544800002504460E4600939246036AA946039532
:105458008B42059539D3EFF3118B102383F3128810
:10546800BFF36F8F059AD8462AB129462046FFF721
:105478009BFF0023059304A92046FFF7BAFE049971
:105488000746B1422AD322682046E36913F822105E
:1054980003EB820921F0030103F822103246216848
:1054A800FFF7CBFEE3682060984212D0002788F30C
:1054B8001188BFF36F8F039929B162690AB1204639
:1054C800904700230393002FC5D1484607B0BDE895
:1054D800F08F236943F008032361E7E718B12046FA
:1054E800FFF7C5FEE3E7009B5AEA03021CD00191CF
:1054F80001F047F80199B8B9BBF1000F14D187F34F
:105508001188BFF36F8F5246009B04F12800FEF705
:1055180073FBEFF31188102383F31288BFF36F8FA7
:10552800B0FA80F77F09C2E705AB03AA20462568D1
:10553800FFF7BAFE0746BAE770B50446836908461E
:105548000D4698470246EFF31186102383F312881D
:10555800BFF36F8F2B78204643F001032B706168EF
:10556800FFF76BFE60602046FFF739FF86F311886E
:10557800BFF36F8F70BD2DE9F04104461027EFF39C
:10558800118687F31288BFF36F8F236913F0080F12
:10559800A36802D16268934200D9226AD21AE169EB
:1055A80032B986F31188BFF36F8F4FF0000833E0EC
:1055B80011F8232001EB830812F00300F1D0022830
:1055C80003D151F82350AD0805D1D00712D4A369EF
:1055D800404698470546A1682A462046FFF72DFE13
:1055E8002946A0602046FFF736FE86F31188BFF3F0
:1055F8006F8FC4E742F00202404601F82320A568F5
:10560800A3699847294602462046FFF716FEA06080
:1056180086F31188BFF36F8F4046BDE8F081F8B577
:105628000446836908460D4698470646EFF31187F6
:10563800102383F31288BFF36F8F2B786FF3000367
:105648002B7023699B0705D5E268E36903EB8203A6
:105658009D421AD12B786FF341032B70D4E90231A4
:10566800994204D132462046FFF7E7FDA060314653
:105678002046FFF7F0FD87F31188BFF36F8F04F121
:105688002800BDE8F840FEF783BA2B6860F39F0353
:105698002B60F0E7EFF31181102383F31288BFF337
:1056A8006F8F036913F0080F836802D14268934231
:1056B80000D9026AD31A81F31188BFF36F8F181EBD
:1056C80018BF01207047704703785B075FBF036806
:1056D8004288C3F34A2303EB12105DBF173020F052
:1056E8000700800800207047002070470346BFF37A
:1056F8005B8F53E8000F421C43E800210029F8D1D2
:10570800BFF35B8F704708B501F05DF80A220023EC
:10571800FAF76EFD08BD1FB50023CDE902011A4650
:1057280019461846CDE90033FBF73EFF05B05DF892
:1057380004FB0120FBF7ECBC002070474368DA71DA
:1057480001224368196043685A71FBF7D3BC70B5EE
:10575800D2E901360C4615469B1B8B420AD31368C7
:105768000A460146981901F083F8AB68204623449D
:10577800AB6070BD6FF01B00FBE770B50E461546B9
:105788001946044618B9BDE87040FBF7C1BC33B1EF
:10579800C2F34A231030120D184401F069F820466C
:1057A800C4E90056BDE87040FBF75ABE2DE9F34145
:1057B8005F1C06460C4615464FEA870808F1170095
:1057C80020F007008008FBF725FD00238DF8047002
:1057D800ADF805308DF8073068B1019A0346A8F195
:1057E800040143F8102F2A46294452F8045B8A42E0
:1057F80043F8045FF9D1A2010023314602F4E072B4
:1058080042EA482222F07F4222F4700222F03F024C
:1058180002B0BDE8F041FFF7B0BF07B50123019220
:1058280001AAFFF7C3FF03B05DF804FB07B5CDE994
:10583800002302236A46FFF7B9FF03B05DF804FBB3
:10584800F8B506460D4614461F4604B9F8BD21466C
:1058580028463A46B047241A0544F6E710B5426888
:10586800044681680068D2E90023FFF7E9FF63680E
:1058780000221A6010BD38B54B6805460C461A68F8
:10588800CB689A4202D10846FFF7E8FF6368BFF386
:105898005B8F53E8002F511C43E800100028F8D113
:1058A800BFF35B8FA36800209D5438BD0A2838B524
:1058B80004460D4602D10D20FFF7DDFF294620469C
:1058C800FFF7D9FF002038BD2DE9F043054687B022
:1058D80008460E8891F800900C46D1F808801746C3
:1058E800FBF7B2FE011EC6F38216C9F3C2091FDB1D
:1058F8004846FBF7C7FD03462146608851F8102B40
:10590800C0F30B100196C2F34A22002A01EB0204ED
:105918004FF0000208BF00210092CDE90407CDE94D
:10592800021428464146FBF7BBFE07B0BDE8F083EA
:105938000023E1E7436800201B685B681961704732
:1059480043681B681A685268536070472DE9F04134
:10595800436801211B685A6811751D68D5E901362D
:105968002F68D3E900481CB96B681C60BDE8F0815A
:10597800214630464246B847241A0644F3E74368AE
:105988001B681868FBF7F6BF70B543680C461D68BE
:105998006B681869FBF798FB214603460F222868B5
:1059A800BDE87040184701460068FCF73DB808B5E7
:1059B800FCF796F8BDE80840FCF7B6B80A4601219E
:1059C800FFF72BBF00210120FCF72EB861B662B6A5
:1059D80080F31188BFF36F8F704772B6002383F38B
:1059E8001188BFF36F8FBFF34F8F30BF62B6BFF31D
:1059F8006F8F7047202809D9B0F1004F08D80138B7
:105A0800B0FA80F0C0F11F004000704708207047CE
:105A18003E20704708B5D1E904319847002008BDF9
:105A280008B5FCF703FE002008BD01208840704738
:105A380000F003020F2304329200934043EA9000DF
:105A4800C3B2020C9B0092FAA2F203F18043B2FAAD
:105A580082F203F59C33914010B59C6824EA10400B
:105A68000143996010BD0B8882B0C3F30B0303F5A3
:105A78007D62C2F30B02782A14D803F18043486888
:105A880003F50E331A68024300201A600B88C3F32B
:105A98000B0303F1804303F50E331B680193019B4D
:105AA80002B070476FF08500FAE70B88C3F30B0369
:105AB80003F57D62C2F30B02782A0AD803F180430A
:105AC8004968002003F50E331A6822EA01021A60B9
